{
  "contractName": "BatchDeposit",
  "abi": [
    {
      "inputs": [
        {
          "internalType": "address",
          "name": "depositContractAddr",
          "type": "address"
        }
      ],
      "stateMutability": "nonpayable",
      "type": "constructor"
    },
    {
      "anonymous": false,
      "inputs": [
        {
          "indexed": true,
          "internalType": "address",
          "name": "previousOwner",
          "type": "address"
        },
        {
          "indexed": true,
          "internalType": "address",
          "name": "newOwner",
          "type": "address"
        }
      ],
      "name": "OwnershipTransferred",
      "type": "event"
    },
    {
      "anonymous": false,
      "inputs": [
        {
          "indexed": false,
          "internalType": "address",
          "name": "account",
          "type": "address"
        }
      ],
      "name": "Paused",
      "type": "event"
    },
    {
      "anonymous": false,
      "inputs": [
        {
          "indexed": false,
          "internalType": "address",
          "name": "account",
          "type": "address"
        }
      ],
      "name": "Unpaused",
      "type": "event"
    },
    {
      "anonymous": false,
      "inputs": [
        {
          "indexed": true,
          "internalType": "address",
          "name": "payee",
          "type": "address"
        },
        {
          "indexed": false,
          "internalType": "uint256",
          "name": "weiAmount",
          "type": "uint256"
        }
      ],
      "name": "Withdrawn",
      "type": "event"
    },
    {
      "inputs": [],
      "name": "owner",
      "outputs": [
        {
          "internalType": "address",
          "name": "",
          "type": "address"
        }
      ],
      "stateMutability": "view",
      "type": "function"
    },
    {
      "inputs": [],
      "name": "paused",
      "outputs": [
        {
          "internalType": "bool",
          "name": "",
          "type": "bool"
        }
      ],
      "stateMutability": "view",
      "type": "function"
    },
    {
      "inputs": [
        {
          "internalType": "address",
          "name": "newOwner",
          "type": "address"
        }
      ],
      "name": "transferOwnership",
      "outputs": [],
      "stateMutability": "nonpayable",
      "type": "function"
    },
    {
      "inputs": [
        {
          "internalType": "bytes",
          "name": "pubkeys",
          "type": "bytes"
        },
        {
          "internalType": "bytes",
          "name": "withdrawal_credentials",
          "type": "bytes"
        },
        {
          "internalType": "bytes",
          "name": "signatures",
          "type": "bytes"
        },
        {
          "internalType": "bytes32[]",
          "name": "deposit_data_roots",
          "type": "bytes32[]"
        }
      ],
      "name": "batchDeposit",
      "outputs": [],
      "stateMutability": "payable",
      "type": "function"
    },
    {
      "inputs": [
        {
          "internalType": "address payable",
          "name": "receiver",
          "type": "address"
        }
      ],
      "name": "withdraw",
      "outputs": [],
      "stateMutability": "nonpayable",
      "type": "function"
    },
    {
      "inputs": [],
      "name": "pause",
      "outputs": [],
      "stateMutability": "nonpayable",
      "type": "function"
    },
    {
      "inputs": [],
      "name": "unpause",
      "outputs": [],
      "stateMutability": "nonpayable",
      "type": "function"
    },
    {
      "inputs": [],
      "name": "renounceOwnership",
      "outputs": [],
      "stateMutability": "nonpayable",
      "type": "function"
    }
  ],
  "bytecode": "0x608060405234801561001057600080fd5b506040516114013803806114018339818101604052602081101561003357600080fd5b50516000805460ff191681556100506401000000006100c7810204565b6000805461010060a860020a031916610100600160a060020a038416908102919091178255604051929350917f8be0079c531659141344cd1fd0a4f28419497f9722a3daafe3b4186f6b6457e0908290a35060018054600160a060020a031916600160a060020a03929092169190911790556100cb565b3390565b611327806100da6000396000f3fe608060405260043610610098576000357c0100000000000000000000000000000000000000000000000000000000900480638456cb591161006b5780638456cb59146101325780638da5cb5b14610147578063c82655b714610185578063f2fde38b146102eb57610098565b80633f4ba83a1461009d57806351cff8d9146100b45780635c975abb146100f4578063715018a61461011d575b600080fd5b3480156100a957600080fd5b506100b261032b565b005b3480156100c057600080fd5b506100b2600480360360208110156100d757600080fd5b503573ffffffffffffffffffffffffffffffffffffffff166103cb565b34801561010057600080fd5b50610109610563565b604080519115158252519081900360200190f35b34801561012957600080fd5b506100b261056c565b34801561013e57600080fd5b506100b2610653565b34801561015357600080fd5b5061015c6106f1565b6040805173ffffffffffffffffffffffffffffffffffffffff9092168252519081900360200190f35b6100b26004803603608081101561019b57600080fd5b8101906020810181356401000000008111156101b657600080fd5b8201836020820111156101c857600080fd5b803590602001918460018302840111640100000000831117156101ea57600080fd5b91939092909160208101903564010000000081111561020857600080fd5b82018360208201111561021a57600080fd5b8035906020019184600183028401116401000000008311171561023c57600080fd5b91939092909160208101903564010000000081111561025a57600080fd5b82018360208201111561026c57600080fd5b8035906020019184600183028401116401000000008311171561028e57600080fd5b9193909290916020810190356401000000008111156102ac57600080fd5b8201836020820111156102be57600080fd5b803590602001918460208302840111640100000000831117156102e057600080fd5b509092509050610712565b3480156102f757600080fd5b506100b26004803603602081101561030e57600080fd5b503573ffffffffffffffffffffffffffffffffffffffff16610d12565b610333610eab565b600054610100900473ffffffffffffffffffffffffffffffffffffffff9081169116146103c157604080517f08c379a000000000000000000000000000000000000000000000000000000000815260206004820181905260248201527f4f776e61626c653a2063616c6c6572206973206e6f7420746865206f776e6572604482015290519081900360640190fd5b6103c9610eaf565b565b6103d3610eab565b600054610100900473ffffffffffffffffffffffffffffffffffffffff90811691161461046157604080517f08c379a000000000000000000000000000000000000000000000000000000000815260206004820181905260248201527f4f776e61626c653a2063616c6c6572206973206e6f7420746865206f776e6572604482015290519081900360640190fd5b73ffffffffffffffffffffffffffffffffffffffff81166104cd576040517f08c379a000000000000000000000000000000000000000000000000000000000815260040180806020018281038252602181526020018061118d6021913960400191505060405180910390fd5b604080513031808252915173ffffffffffffffffffffffffffffffffffffffff8416917f7084f5476618d8e60b11ef0d7d3f06914655adb8793e28ff7f018d4c76d505d5919081900360200190a260405173ffffffffffffffffffffffffffffffffffffffff83169082156108fc029083906000818181858888f1935050505015801561055e573d6000803e3d6000fd5b505050565b60005460ff1690565b610574610eab565b600054610100900473ffffffffffffffffffffffffffffffffffffffff90811691161461060257604080517f08c379a000000000000000000000000000000000000000000000000000000000815260206004820181905260248201527f4f776e61626c653a2063616c6c6572206973206e6f7420746865206f776e6572604482015290519081900360640190fd5b6040517f08c379a00000000000000000000000000000000000000000000000000000000081526004018080602001828103825260268152602001806111de6026913960400191505060405180910390fd5b61065b610eab565b600054610100900473ffffffffffffffffffffffffffffffffffffffff9081169116146106e957604080517f08c379a000000000000000000000000000000000000000000000000000000000815260206004820181905260248201527f4f776e61626c653a2063616c6c6572206973206e6f7420746865206f776e6572604482015290519081900360640190fd5b6103c9610f9b565b600054610100900473ffffffffffffffffffffffffffffffffffffffff1690565b60005460ff161561078457604080517f08c379a000000000000000000000000000000000000000000000000000000000815260206004820152601060248201527f5061757361626c653a2070617573656400000000000000000000000000000000604482015290519081900360640190fd5b633b9aca003406156107e1576040517f08c379a00000000000000000000000000000000000000000000000000000000081526004018080602001828103825260308152602001806111ae6030913960400191505060405180910390fd5b6801bc16d674ec80000034101561085957604080517f08c379a000000000000000000000000000000000000000000000000000000000815260206004820152601f60248201527f42617463684465706f7369743a20416d6f756e7420697320746f6f206c6f7700604482015290519081900360640190fd5b80806108b0576040517f08c379a00000000000000000000000000000000000000000000000000000000081526004018080602001828103825260378152602001806112bb6037913960400191505060405180910390fd5b606481111561090a576040517f08c379a000000000000000000000000000000000000000000000000000000000815260040180806020018281038252603a81526020018061125b603a913960400191505060405180910390fd5b603081028814610965576040517f08c379a00000000000000000000000000000000000000000000000000000000081526004018080602001828103825260268152602001806112956026913960400191505060405180910390fd5b6060810284146109c0576040517f08c379a000000000000000000000000000000000000000000000000000000000815260040180806020018281038252602a815260200180611163602a913960400191505060405180910390fd5b60208614610a19576040517f08c379a00000000000000000000000000000000000000000000000000000000081526004018080602001828103825260368152602001806112046036913960400191505060405180910390fd5b610a326801bc16d674ec8000008263ffffffff61106116565b3414610a89576040517f08c379a000000000000000000000000000000000000000000000000000000000815260040180806020018281038252603781526020018061112c6037913960400191505060405180910390fd5b60005b81811015610d06576060610aab60306001840181029084028c8e6110dd565b8080601f01602080910402602001604051908101604052809392919081815260200183838082843760009201919091525092935060609250610af9915050600184018202848302898b6110dd565b8080601f016020809104026020016040519081016040528093929190818152602001838380828437600092019190915250506001549293505073ffffffffffffffffffffffffffffffffffffffff909116905063228951186801bc16d674ec800000848d8d868c8c8b818110610b6b57fe5b905060200201356040518763ffffffff167c010000000000000000000000000000000000000000000000000000000002815260040180806020018060200180602001858152602001848103845289818151815260200191508051906020019080838360005b83811015610be8578181015183820152602001610bd0565b50505050905090810190601f168015610c155780820380516001836020036101000a031916815260200191505b5084810383528781526020018888808284376000838201819052601f9091017fffffffffffffffffffffffffffffffffffffffffffffffffffffffffffffffe0169092018681038452885181528851602091820193918a019250908190849084905b83811015610c8f578181015183820152602001610c77565b50505050905090810190601f168015610cbc5780820380516001836020036101000a031916815260200191505b50985050505050505050506000604051808303818588803b158015610ce057600080fd5b505af1158015610cf4573d6000803e3d6000fd5b50505050505050806001019050610a8c565b50505050505050505050565b610d1a610eab565b600054610100900473ffffffffffffffffffffffffffffffffffffffff908116911614610da857604080517f08c379a000000000000000000000000000000000000000000000000000000000815260206004820181905260248201527f4f776e61626c653a2063616c6c6572206973206e6f7420746865206f776e6572604482015290519081900360640190fd5b73ffffffffffffffffffffffffffffffffffffffff8116610e14576040517f08c379a00000000000000000000000000000000000000000000000000000000081526004018080602001828103825260268152602001806111066026913960400191505060405180910390fd5b6000805460405173ffffffffffffffffffffffffffffffffffffffff8085169361010090930416917f8be0079c531659141344cd1fd0a4f28419497f9722a3daafe3b4186f6b6457e091a36000805473ffffffffffffffffffffffffffffffffffffffff909216610100027fffffffffffffffffffffff0000000000000000000000000000000000000000ff909216919091179055565b3390565b60005460ff16610f2057604080517f08c379a000000000000000000000000000000000000000000000000000000000815260206004820152601460248201527f5061757361626c653a206e6f7420706175736564000000000000000000000000604482015290519081900360640190fd5b600080547fffffffffffffffffffffffffffffffffffffffffffffffffffffffffffffff001690557f5db9ee0a495bf2e6ff9c91a7834c1ba4fdd244a5e8aa4e537bd38aeae4b073aa610f71610eab565b6040805173ffffffffffffffffffffffffffffffffffffffff9092168252519081900360200190a1565b60005460ff161561100d57604080517f08c379a000000000000000000000000000000000000000000000000000000000815260206004820152601060248201527f5061757361626c653a2070617573656400000000000000000000000000000000604482015290519081900360640190fd5b600080547fffffffffffffffffffffffffffffffffffffffffffffffffffffffffffffff001660011790557f62e78cea01bee320cd4e420270b5ea74000d11b0c9f74754ebdbfc544b05a258610f71610eab565b600082611070575060006110d7565b8282028284828161107d57fe5b04146110d4576040517f08c379a000000000000000000000000000000000000000000000000000000000815260040180806020018281038252602181526020018061123a6021913960400191505060405180910390fd5b90505b92915050565b600080858511156110ec578182fd5b838611156110f8578182fd5b505082019391909203915056fe4f776e61626c653a206e6577206f776e657220697320746865207a65726f206164647265737342617463684465706f7369743a20416d6f756e74206973206e6f7420616c69676e65642077697468207075626b657973206e756d62657242617463684465706f7369743a205369676e61747572657320636f756e7420646f6e2774206d61746368596f752063616e2774206275726e20746865736520657468206469726563746c7942617463684465706f7369743a204465706f7369742076616c7565206e6f74206d756c7469706c65206f6620475745494f776e61626c653a2072656e6f756e63654f776e6572736869702069732064697361626c656442617463684465706f7369743a205769746864726177616c2043726564656e7469616c7320636f756e7420646f6e2774206d61746368536166654d6174683a206d756c7469706c69636174696f6e206f766572666c6f7742617463684465706f7369743a20596f752063616e206465706f736974206d6178203130302076616c696461746f727320617420612074696d6542617463684465706f7369743a205075626b657920636f756e7420646f6e2774206d6174636842617463684465706f7369743a20596f752073686f756c64206465706f736974206174206c65617374206f6e652076616c696461746f72a2646970667358221220bfd8b70093581868cf9801cd14683699c0849b0e093da6e64f54c834ff07094364736f6c634300060b0033",
  "immutableReferences": {},
  "source": "// SPDX-License-Identifier: Apache-2.0\n\npragma solidity 0.6.11;\n\nimport \"./interfaces/IDepositContract.sol\";\nimport \"../node_modules/@openzeppelin/contracts/utils/Pausable.sol\";\nimport \"../node_modules/@openzeppelin/contracts/access/Ownable.sol\";\nimport \"../node_modules/@openzeppelin/contracts/math/SafeMath.sol\";\n\ncontract BatchDeposit is Pausable, Ownable {\n    using SafeMath for uint256;\n\n    address depositContract;\n\n    uint256 constant PUBKEY_LENGTH = 48;\n    uint256 constant SIGNATURE_LENGTH = 96;\n    uint256 constant CREDENTIALS_LENGTH = 32;\n    uint256 constant MAX_VALIDATORS = 100;\n    uint256 constant DEPOSIT_AMOUNT = 32 ether;\n\n    event Withdrawn(address indexed payee, uint256 weiAmount);\n\n    constructor(address depositContractAddr) public {\n\n        depositContract = depositContractAddr;\n    }\n\n    /**\n     * @dev Performs a batch deposit, asking for an additional fee payment.\n     */\n    function batchDeposit(\n        bytes calldata pubkeys, \n        bytes calldata withdrawal_credentials, \n        bytes calldata signatures, \n        bytes32[] calldata deposit_data_roots\n    ) \n        external payable whenNotPaused \n    {\n        // sanity checks\n        require(msg.value % 1 gwei == 0, \"BatchDeposit: Deposit value not multiple of GWEI\");\n        require(msg.value >= DEPOSIT_AMOUNT, \"BatchDeposit: Amount is too low\");\n\n        uint256 count = deposit_data_roots.length;\n        require(count > 0, \"BatchDeposit: You should deposit at least one validator\");\n        require(count <= MAX_VALIDATORS, \"BatchDeposit: You can deposit max 100 validators at a time\");\n\n        require(pubkeys.length == count * PUBKEY_LENGTH, \"BatchDeposit: Pubkey count don't match\");\n        require(signatures.length == count * SIGNATURE_LENGTH, \"BatchDeposit: Signatures count don't match\");\n        require(withdrawal_credentials.length == 1 * CREDENTIALS_LENGTH, \"BatchDeposit: Withdrawal Credentials count don't match\");\n\n        require(msg.value == DEPOSIT_AMOUNT.mul(count), \"BatchDeposit: Amount is not aligned with pubkeys number\");\n\n        for (uint256 i = 0; i < count; ++i) {\n            bytes memory pubkey = bytes(pubkeys[i*PUBKEY_LENGTH:(i+1)*PUBKEY_LENGTH]);\n            bytes memory signature = bytes(signatures[i*SIGNATURE_LENGTH:(i+1)*SIGNATURE_LENGTH]);\n\n            IDepositContract(depositContract).deposit{value: DEPOSIT_AMOUNT}(\n                pubkey,\n                withdrawal_credentials,\n                signature,\n                deposit_data_roots[i]\n            );\n        }\n    }\n\n    /**\n     * @dev Withdraw accumulated fee in the contract\n     *\n     * @param receiver The address where all accumulated funds will be transferred to.\n     * Can only be called by the current owner.\n     */\n    function withdraw(address payable receiver) public onlyOwner {       \n        require(receiver != address(0), \"You can't burn these eth directly\");\n\n        uint256 amount = address(this).balance;\n        emit Withdrawn(receiver, amount);\n        receiver.transfer(amount);\n    }\n\n    /**\n     * @dev Triggers stopped state.\n     *\n     * Requirements:\n     *\n     * - The contract must not be paused.\n     */\n    function pause() public onlyOwner {\n        _pause();\n    }\n\n    /**\n     * @dev Returns to normal state.\n     *\n     * Requirements:\n     *\n     * - The contract must be paused.\n     */\n    function unpause() public onlyOwner {\n        _unpause();\n    }\n\n    /**\n     * Disable renunce ownership\n     */\n    function renounceOwnership() public override onlyOwner {\n        revert(\"Ownable: renounceOwnership is disabled\");\n    }\n}\n",
  "sourcePath": "/home/brent/code/eth2-batch-deposit/contracts/BatchDeposits.sol",
  "compiler": {
    "name": "solc",
    "version": "0.6.11+commit.5ef660b1.Emscripten.clang"
  },
  "schemaVersion": "3.4.7",
  "updatedAt": "2022-06-28T15:20:51.229Z",
  "devdoc": {
    "kind": "dev",
    "methods": {
      "batchDeposit(bytes,bytes,bytes,bytes32[])": {
        "details": "Performs a batch deposit, asking for an additional fee payment."
      },
      "owner()": {
        "details": "Returns the address of the current owner."
      },
      "pause()": {
        "details": "Triggers stopped state. Requirements: - The contract must not be paused."
      },
      "paused()": {
        "details": "Returns true if the contract is paused, and false otherwise."
      },
      "transferOwnership(address)": {
        "details": "Transfers ownership of the contract to a new account (`newOwner`). Can only be called by the current owner."
      },
      "unpause()": {
        "details": "Returns to normal state. Requirements: - The contract must be paused."
      },
      "withdraw(address)": {
        "details": "Withdraw accumulated fee in the contract",
        "params": {
          "receiver": "The address where all accumulated funds will be transferred to. Can only be called by the current owner."
        }
      }
    },
    "version": 1
  },
  "userdoc": {
    "kind": "user",
    "methods": {
      "renounceOwnership()": {
        "notice": "Disable renunce ownership"
      }
    },
    "version": 1
  }
}