{
  "contractName": "DepositContract",
  "abi": [
    {
      "inputs": [],
      "stateMutability": "nonpayable",
      "type": "constructor"
    },
    {
      "anonymous": false,
      "inputs": [
        {
          "indexed": false,
          "internalType": "bytes",
          "name": "pubkey",
          "type": "bytes"
        },
        {
          "indexed": false,
          "internalType": "bytes",
          "name": "withdrawal_credentials",
          "type": "bytes"
        },
        {
          "indexed": false,
          "internalType": "bytes",
          "name": "amount",
          "type": "bytes"
        },
        {
          "indexed": false,
          "internalType": "bytes",
          "name": "signature",
          "type": "bytes"
        },
        {
          "indexed": false,
          "internalType": "bytes",
          "name": "index",
          "type": "bytes"
        }
      ],
      "name": "DepositEvent",
      "type": "event"
    },
    {
      "inputs": [],
      "name": "get_deposit_root",
      "outputs": [
        {
          "internalType": "bytes32",
          "name": "",
          "type": "bytes32"
        }
      ],
      "stateMutability": "view",
      "type": "function"
    },
    {
      "inputs": [],
      "name": "get_deposit_count",
      "outputs": [
        {
          "internalType": "bytes",
          "name": "",
          "type": "bytes"
        }
      ],
      "stateMutability": "view",
      "type": "function"
    },
    {
      "inputs": [
        {
          "internalType": "bytes",
          "name": "pubkey",
          "type": "bytes"
        },
        {
          "internalType": "bytes",
          "name": "withdrawal_credentials",
          "type": "bytes"
        },
        {
          "internalType": "bytes",
          "name": "signature",
          "type": "bytes"
        },
        {
          "internalType": "bytes32",
          "name": "deposit_data_root",
          "type": "bytes32"
        }
      ],
      "name": "deposit",
      "outputs": [],
      "stateMutability": "payable",
      "type": "function"
    },
    {
      "inputs": [
        {
          "internalType": "bytes4",
          "name": "interfaceId",
          "type": "bytes4"
        }
      ],
      "name": "supportsInterface",
      "outputs": [
        {
          "internalType": "bool",
          "name": "",
          "type": "bool"
        }
      ],
      "stateMutability": "pure",
      "type": "function"
    }
  ],
  "bytecode": "0x60806040523480156200001157600080fd5b5060005b601f8110156200010c576002602182602081106200002f57fe5b0154602183602081106200003f57fe5b015460405160200180838152602001828152602001925050506040516020818303038152906040526040518082805190602001908083835b60208310620000985780518252601f19909201916020918201910162000077565b51815160209384036101000a60001901801990921691161790526040519190930194509192505080830381855afa158015620000d8573d6000803e3d6000fd5b5050506040513d6020811015620000ee57600080fd5b5051602160018301602081106200010157fe5b015560010162000015565b50611a19806200011d6000396000f3fe60806040526004361061005b577c0100000000000000000000000000000000000000000000000000000000600035046301ffc9a7811461006057806322895118146100c0578063621fd130146101d6578063c5f2892f14610260575b600080fd5b34801561006c57600080fd5b506100ac6004803603602081101561008357600080fd5b50357fffffffff0000000000000000000000000000000000000000000000000000000016610287565b604080519115158252519081900360200190f35b6101d4600480360360808110156100d657600080fd5b8101906020810181356401000000008111156100f157600080fd5b82018360208201111561010357600080fd5b8035906020019184600183028401116401000000008311171561012557600080fd5b91939092909160208101903564010000000081111561014357600080fd5b82018360208201111561015557600080fd5b8035906020019184600183028401116401000000008311171561017757600080fd5b91939092909160208101903564010000000081111561019557600080fd5b8201836020820111156101a757600080fd5b803590602001918460018302840111640100000000831117156101c957600080fd5b919350915035610320565b005b3480156101e257600080fd5b506101eb6110e1565b6040805160208082528351818301528351919283929083019185019080838360005b8381101561022557818101518382015260200161020d565b50505050905090810190601f1680156102525780820380516001836020036101000a031916815260200191505b509250505060405180910390f35b34801561026c57600080fd5b506102756110f3565b60408051918252519081900360200190f35b60007fffffffff0000000000000000000000000000000000000000000000000000000082167f01ffc9a700000000000000000000000000000000000000000000000000000000148061031a57507fffffffff0000000000000000000000000000000000000000000000000000000082167f8564090700000000000000000000000000000000000000000000000000000000145b92915050565b60308614610379576040517f08c379a00000000000000000000000000000000000000000000000000000000081526004018080602001828103825260268152602001806119486026913960400191505060405180910390fd5b602084146103d2576040517f08c379a00000000000000000000000000000000000000000000000000000000081526004018080602001828103825260368152602001806118df6036913960400191505060405180910390fd5b6060821461042b576040517f08c379a00000000000000000000000000000000000000000000000000000000081526004018080602001828103825260298152602001806119bb6029913960400191505060405180910390fd5b670de0b6b3a764000034101561048c576040517f08c379a00000000000000000000000000000000000000000000000000000000081526004018080602001828103825260268152602001806119956026913960400191505060405180910390fd5b633b9aca003406156104e9576040517f08c379a00000000000000000000000000000000000000000000000000000000081526004018080602001828103825260338152602001806119156033913960400191505060405180910390fd5b633b9aca00340467ffffffffffffffff811115610551576040517f08c379a000000000000000000000000000000000000000000000000000000000815260040180806020018281038252602781526020018061196e6027913960400191505060405180910390fd5b606061055c826114ee565b90507f649bbc62d0e31342afea4e5cd82d4049e7e1ee912fc0889aa790803be39038c589898989858a8a6105916020546114ee565b6040805160a0808252810189905290819060208201908201606083016080840160c085018e8e80828437600083820152601f017fffffffffffffffffffffffffffffffffffffffffffffffffffffffffffffffe01690910187810386528c815260200190508c8c808284376000838201819052601f9091017fffffffffffffffffffffffffffffffffffffffffffffffffffffffffffffffe01690920188810386528c5181528c51602091820193918e019250908190849084905b8381101561066457818101518382015260200161064c565b50505050905090810190601f1680156106915780820380516001836020036101000a031916815260200191505b5086810383528881526020018989808284376000838201819052601f9091017fffffffffffffffffffffffffffffffffffffffffffffffffffffffffffffffe0169092018881038452895181528951602091820193918b019250908190849084905b8381101561070b5781810151838201526020016106f3565b50505050905090810190601f1680156107385780820380516001836020036101000a031916815260200191505b509d505050505050505050505050505060405180910390a1600060028a8a600070010000000000000000000000000000000002604051602001808484808284377fffffffffffffffffffffffffffffffff0000000000000000000000000000000090941691909301908152604080517ffffffffffffffffffffffffffffffffffffffffffffffffffffffffffffffff0818403018152601090920190819052815191955093508392506020850191508083835b6020831061082857805182527fffffffffffffffffffffffffffffffffffffffffffffffffffffffffffffffe090920191602091820191016107eb565b51815160209384036101000a7fffffffffffffffffffffffffffffffffffffffffffffffffffffffffffffffff01801990921691161790526040519190930194509192505080830381855afa158015610885573d6000803e3d6000fd5b5050506040513d602081101561089a57600080fd5b5051905060006002806108b06040848a8c611841565b6040516020018083838082843780830192505050925050506040516020818303038152906040526040518082805190602001908083835b6020831061092457805182527fffffffffffffffffffffffffffffffffffffffffffffffffffffffffffffffe090920191602091820191016108e7565b51815160209384036101000a7fffffffffffffffffffffffffffffffffffffffffffffffffffffffffffffffff01801990921691161790526040519190930194509192505080830381855afa158015610981573d6000803e3d6000fd5b5050506040513d602081101561099657600080fd5b505160026109a7896040818d611841565b60405160009060200180848480828437919091019283525050604080518083038152602092830191829052805190945090925082918401908083835b60208310610a2057805182527fffffffffffffffffffffffffffffffffffffffffffffffffffffffffffffffe090920191602091820191016109e3565b51815160209384036101000a7fffffffffffffffffffffffffffffffffffffffffffffffffffffffffffffffff01801990921691161790526040519190930194509192505080830381855afa158015610a7d573d6000803e3d6000fd5b5050506040513d6020811015610a9257600080fd5b5051604080516020818101949094528082019290925280518083038201815260609092019081905281519192909182918401908083835b60208310610b0657805182527fffffffffffffffffffffffffffffffffffffffffffffffffffffffffffffffe09092019160209182019101610ac9565b51815160209384036101000a7fffffffffffffffffffffffffffffffffffffffffffffffffffffffffffffffff01801990921691161790526040519190930194509192505080830381855afa158015610b63573d6000803e3d6000fd5b5050506040513d6020811015610b7857600080fd5b50516040805160208101858152929350600092600292839287928f928f92018383808284378083019250505093505050506040516020818303038152906040526040518082805190602001908083835b60208310610c0557805182527fffffffffffffffffffffffffffffffffffffffffffffffffffffffffffffffe09092019160209182019101610bc8565b51815160209384036101000a7fffffffffffffffffffffffffffffffffffffffffffffffffffffffffffffffff01801990921691161790526040519190930194509192505080830381855afa158015610c62573d6000803e3d6000fd5b5050506040513d6020811015610c7757600080fd5b50516040518651600291889160009188916020918201918291908601908083835b60208310610cd557805182527fffffffffffffffffffffffffffffffffffffffffffffffffffffffffffffffe09092019160209182019101610c98565b6001836020036101000a0380198251168184511680821785525050505050509050018367ffffffffffffffff191667ffffffffffffffff1916815260180182815260200193505050506040516020818303038152906040526040518082805190602001908083835b60208310610d7a57805182527fffffffffffffffffffffffffffffffffffffffffffffffffffffffffffffffe09092019160209182019101610d3d565b51815160209384036101000a7fffffffffffffffffffffffffffffffffffffffffffffffffffffffffffffffff01801990921691161790526040519190930194509192505080830381855afa158015610dd7573d6000803e3d6000fd5b5050506040513d6020811015610dec57600080fd5b5051604080516020818101949094528082019290925280518083038201815260609092019081905281519192909182918401908083835b60208310610e6057805182527fffffffffffffffffffffffffffffffffffffffffffffffffffffffffffffffe09092019160209182019101610e23565b51815160209384036101000a7fffffffffffffffffffffffffffffffffffffffffffffffffffffffffffffffff01801990921691161790526040519190930194509192505080830381855afa158015610ebd573d6000803e3d6000fd5b5050506040513d6020811015610ed257600080fd5b50519050858114610f2e576040517f08c379a000000000000000000000000000000000000000000000000000000000815260040180806020018281038252605481526020018061188b6054913960600191505060405180910390fd5b60205463ffffffff11610f8c576040517f08c379a000000000000000000000000000000000000000000000000000000000815260040180806020018281038252602181526020018061186a6021913960400191505060405180910390fd5b602080546001019081905560005b60208110156110d5578160011660011415610fcc578260008260208110610fbd57fe5b0155506110d895505050505050565b600260008260208110610fdb57fe5b01548460405160200180838152602001828152602001925050506040516020818303038152906040526040518082805190602001908083835b6020831061105157805182527fffffffffffffffffffffffffffffffffffffffffffffffffffffffffffffffe09092019160209182019101611014565b51815160209384036101000a7fffffffffffffffffffffffffffffffffffffffffffffffffffffffffffffffff01801990921691161790526040519190930194509192505080830381855afa1580156110ae573d6000803e3d6000fd5b5050506040513d60208110156110c357600080fd5b50519250600282049150600101610f9a565b50fe5b50505050505050565b60606110ee6020546114ee565b905090565b6020546000908190815b602081101561131c5781600116600114156112125760026000826020811061112157fe5b01548460405160200180838152602001828152602001925050506040516020818303038152906040526040518082805190602001908083835b6020831061119757805182527fffffffffffffffffffffffffffffffffffffffffffffffffffffffffffffffe0909201916020918201910161115a565b51815160209384036101000a7fffffffffffffffffffffffffffffffffffffffffffffffffffffffffffffffff01801990921691161790526040519190930194509192505080830381855afa1580156111f4573d6000803e3d6000fd5b5050506040513d602081101561120957600080fd5b5051925061130e565b6002836021836020811061122257fe5b015460405160200180838152602001828152602001925050506040516020818303038152906040526040518082805190602001908083835b6020831061129757805182527fffffffffffffffffffffffffffffffffffffffffffffffffffffffffffffffe0909201916020918201910161125a565b51815160209384036101000a7fffffffffffffffffffffffffffffffffffffffffffffffffffffffffffffffff01801990921691161790526040519190930194509192505080830381855afa1580156112f4573d6000803e3d6000fd5b5050506040513d602081101561130957600080fd5b505192505b6002820491506001016110fd565b5060028261132b6020546114ee565b600068010000000000000000026040516020018084815260200183805190602001908083835b6020831061138e57805182527fffffffffffffffffffffffffffffffffffffffffffffffffffffffffffffffe09092019160209182019101611351565b51815160209384036101000a7fffffffffffffffffffffffffffffffffffffffffffffffffffffffffffffffff01801990921691161790527fffffffffffffffffffffffffffffffffffffffffffffffff000000000000000095909516920191825250604080518083037ffffffffffffffffffffffffffffffffffffffffffffffffffffffffffffffff8018152601890920190819052815191955093508392850191508083835b6020831061147357805182527fffffffffffffffffffffffffffffffffffffffffffffffffffffffffffffffe09092019160209182019101611436565b51815160209384036101000a7fffffffffffffffffffffffffffffffffffffffffffffffffffffffffffffffff01801990921691161790526040519190930194509192505080830381855afa1580156114d0573d6000803e3d6000fd5b5050506040513d60208110156114e557600080fd5b50519250505090565b604080516008808252818301909252606091602082018180368337019050509050780100000000000000000000000000000000000000000000000082028060071a7f0100000000000000000000000000000000000000000000000000000000000000028260008151811061155e57fe5b60200101907effffffffffffffffffffffffffffffffffffffffffffffffffffffffffffff1916908160001a9053508060061a7f010000000000000000000000000000000000000000000000000000000000000002826001815181106115c057fe5b60200101907effffffffffffffffffffffffffffffffffffffffffffffffffffffffffffff1916908160001a9053508060051a7f0100000000000000000000000000000000000000000000000000000000000000028260028151811061162257fe5b60200101907effffffffffffffffffffffffffffffffffffffffffffffffffffffffffffff1916908160001a9053508060041a7f0100000000000000000000000000000000000000000000000000000000000000028260038151811061168457fe5b60200101907effffffffffffffffffffffffffffffffffffffffffffffffffffffffffffff1916908160001a9053508060031a7f010000000000000000000000000000000000000000000000000000000000000002826004815181106116e657fe5b60200101907effffffffffffffffffffffffffffffffffffffffffffffffffffffffffffff1916908160001a9053508060021a7f0100000000000000000000000000000000000000000000000000000000000000028260058151811061174857fe5b60200101907effffffffffffffffffffffffffffffffffffffffffffffffffffffffffffff1916908160001a9053508060011a7f010000000000000000000000000000000000000000000000000000000000000002826006815181106117aa57fe5b60200101907effffffffffffffffffffffffffffffffffffffffffffffffffffffffffffff1916908160001a9053508060001a7f0100000000000000000000000000000000000000000000000000000000000000028260078151811061180c57fe5b60200101907effffffffffffffffffffffffffffffffffffffffffffffffffffffffffffff1916908160001a90535050919050565b60008085851115611850578182fd5b8386111561185c578182fd5b505082019391909203915056fe4465706f736974436f6e74726163743a206d65726b6c6520747265652066756c6c4465706f736974436f6e74726163743a207265636f6e7374727563746564204465706f7369744461746120646f6573206e6f74206d6174636820737570706c696564206465706f7369745f646174615f726f6f744465706f736974436f6e74726163743a20696e76616c6964207769746864726177616c5f63726564656e7469616c73206c656e6774684465706f736974436f6e74726163743a206465706f7369742076616c7565206e6f74206d756c7469706c65206f6620677765694465706f736974436f6e74726163743a20696e76616c6964207075626b6579206c656e6774684465706f736974436f6e74726163743a206465706f7369742076616c756520746f6f20686967684465706f736974436f6e74726163743a206465706f7369742076616c756520746f6f206c6f774465706f736974436f6e74726163743a20696e76616c6964207369676e6174757265206c656e677468a2646970667358221220f98ae020b10b6b02dda0a919ba2354256e46d3aea392eea7ce0fdd846fe3b27a64736f6c634300060b0033",
  "immutableReferences": {},
  "source": "// THIS IS FOR TESTING PURPOSES ONLY. COPY PASTED FROM MEDALLA CONTRACT\n\n/**\n *Submitted for verification at Etherscan.io on 2020-10-14\n*/\n\n// ┏━━━┓━┏┓━┏┓━━┏━━━┓━━┏━━━┓━━━━┏━━━┓━━━━━━━━━━━━━━━━━━━┏┓━━━━━┏━━━┓━━━━━━━━━┏┓━━━━━━━━━━━━━━┏┓━\n// ┃┏━━┛┏┛┗┓┃┃━━┃┏━┓┃━━┃┏━┓┃━━━━┗┓┏┓┃━━━━━━━━━━━━━━━━━━┏┛┗┓━━━━┃┏━┓┃━━━━━━━━┏┛┗┓━━━━━━━━━━━━┏┛┗┓\n// ┃┗━━┓┗┓┏┛┃┗━┓┗┛┏┛┃━━┃┃━┃┃━━━━━┃┃┃┃┏━━┓┏━━┓┏━━┓┏━━┓┏┓┗┓┏┛━━━━┃┃━┗┛┏━━┓┏━┓━┗┓┏┛┏━┓┏━━┓━┏━━┓┗┓┏┛\n// ┃┏━━┛━┃┃━┃┏┓┃┏━┛┏┛━━┃┃━┃┃━━━━━┃┃┃┃┃┏┓┃┃┏┓┃┃┏┓┃┃━━┫┣┫━┃┃━━━━━┃┃━┏┓┃┏┓┃┃┏┓┓━┃┃━┃┏┛┗━┓┃━┃┏━┛━┃┃━\n// ┃┗━━┓━┃┗┓┃┃┃┃┃┃┗━┓┏┓┃┗━┛┃━━━━┏┛┗┛┃┃┃━┫┃┗┛┃┃┗┛┃┣━━┃┃┃━┃┗┓━━━━┃┗━┛┃┃┗┛┃┃┃┃┃━┃┗┓┃┃━┃┗┛┗┓┃┗━┓━┃┗┓\n// ┗━━━┛━┗━┛┗┛┗┛┗━━━┛┗┛┗━━━┛━━━━┗━━━┛┗━━┛┃┏━┛┗━━┛┗━━┛┗┛━┗━┛━━━━┗━━━┛┗━━┛┗┛┗┛━┗━┛┗┛━┗━━━┛┗━━┛━┗━┛\n// ━━━━━━━━━━━━━━━━━━━━━━━━━━━━━━━━━━━━━━┃┃━━━━━━━━━━━━━━━━━━━━━━━━━━━━━━━━━━━━━━━━━━━━━━━━━━━━━\n// ━━━━━━━━━━━━━━━━━━━━━━━━━━━━━━━━━━━━━━┗┛━━━━━━━━━━━━━━━━━━━━━━━━━━━━━━━━━━━━━━━━━━━━━━━━━━━━━\n\n// SPDX-License-Identifier: CC0-1.0\n\npragma solidity 0.6.11;\n\nimport \"./interfaces/IDepositContract.sol\";\n\n// Based on official specification in https://eips.ethereum.org/EIPS/eip-165\ninterface ERC165 {\n    /// @notice Query if a contract implements an interface\n    /// @param interfaceId The interface identifier, as specified in ERC-165\n    /// @dev Interface identification is specified in ERC-165. This function\n    ///  uses less than 30,000 gas.\n    /// @return `true` if the contract implements `interfaceId` and\n    ///  `interfaceId` is not 0xffffffff, `false` otherwise\n    function supportsInterface(bytes4 interfaceId) external pure returns (bool);\n}\n\n// This is a rewrite of the Vyper Eth2.0 deposit contract in Solidity.\n// It tries to stay as close as possible to the original source code.\n/// @notice This is the Ethereum 2.0 deposit contract interface.\n/// For more information see the Phase 0 specification under https://github.com/ethereum/eth2.0-specs\ncontract DepositContract is IDepositContract, ERC165 {\n    uint constant DEPOSIT_CONTRACT_TREE_DEPTH = 32;\n    // NOTE: this also ensures `deposit_count` will fit into 64-bits\n    uint constant MAX_DEPOSIT_COUNT = 2**DEPOSIT_CONTRACT_TREE_DEPTH - 1;\n\n    bytes32[DEPOSIT_CONTRACT_TREE_DEPTH] branch;\n    uint256 deposit_count;\n\n    bytes32[DEPOSIT_CONTRACT_TREE_DEPTH] zero_hashes;\n\n    constructor() public {\n        // Compute hashes in empty sparse Merkle tree\n        for (uint height = 0; height < DEPOSIT_CONTRACT_TREE_DEPTH - 1; height++)\n            zero_hashes[height + 1] = sha256(abi.encodePacked(zero_hashes[height], zero_hashes[height]));\n    }\n\n    function get_deposit_root() override external view returns (bytes32) {\n        bytes32 node;\n        uint size = deposit_count;\n        for (uint height = 0; height < DEPOSIT_CONTRACT_TREE_DEPTH; height++) {\n            if ((size & 1) == 1)\n                node = sha256(abi.encodePacked(branch[height], node));\n            else\n                node = sha256(abi.encodePacked(node, zero_hashes[height]));\n            size /= 2;\n        }\n        return sha256(abi.encodePacked(\n            node,\n            to_little_endian_64(uint64(deposit_count)),\n            bytes24(0)\n        ));\n    }\n\n    function get_deposit_count() override external view returns (bytes memory) {\n        return to_little_endian_64(uint64(deposit_count));\n    }\n\n    function deposit(\n        bytes calldata pubkey,\n        bytes calldata withdrawal_credentials,\n        bytes calldata signature,\n        bytes32 deposit_data_root\n    ) override external payable {\n        // Extended ABI length checks since dynamic types are used.\n        require(pubkey.length == 48, \"DepositContract: invalid pubkey length\");\n        require(withdrawal_credentials.length == 32, \"DepositContract: invalid withdrawal_credentials length\");\n        require(signature.length == 96, \"DepositContract: invalid signature length\");\n\n        // Check deposit amount\n        require(msg.value >= 1 ether, \"DepositContract: deposit value too low\");\n        require(msg.value % 1 gwei == 0, \"DepositContract: deposit value not multiple of gwei\");\n        uint deposit_amount = msg.value / 1 gwei;\n        require(deposit_amount <= type(uint64).max, \"DepositContract: deposit value too high\");\n\n        // Emit `DepositEvent` log\n        bytes memory amount = to_little_endian_64(uint64(deposit_amount));\n        emit DepositEvent(\n            pubkey,\n            withdrawal_credentials,\n            amount,\n            signature,\n            to_little_endian_64(uint64(deposit_count))\n        );\n\n        // Compute deposit data root (`DepositData` hash tree root)\n        bytes32 pubkey_root = sha256(abi.encodePacked(pubkey, bytes16(0)));\n        bytes32 signature_root = sha256(abi.encodePacked(\n            sha256(abi.encodePacked(signature[:64])),\n            sha256(abi.encodePacked(signature[64:], bytes32(0)))\n        ));\n        bytes32 node = sha256(abi.encodePacked(\n            sha256(abi.encodePacked(pubkey_root, withdrawal_credentials)),\n            sha256(abi.encodePacked(amount, bytes24(0), signature_root))\n        ));\n\n        // Verify computed and expected deposit data roots match\n        require(node == deposit_data_root, \"DepositContract: reconstructed DepositData does not match supplied deposit_data_root\");\n\n        // Avoid overflowing the Merkle tree (and prevent edge case in computing `branch`)\n        require(deposit_count < MAX_DEPOSIT_COUNT, \"DepositContract: merkle tree full\");\n\n        // Add deposit data root to Merkle tree (update a single `branch` node)\n        deposit_count += 1;\n        uint size = deposit_count;\n        for (uint height = 0; height < DEPOSIT_CONTRACT_TREE_DEPTH; height++) {\n            if ((size & 1) == 1) {\n                branch[height] = node;\n                return;\n            }\n            node = sha256(abi.encodePacked(branch[height], node));\n            size /= 2;\n        }\n        // As the loop should always end prematurely with the `return` statement,\n        // this code should be unreachable. We assert `false` just to be safe.\n        assert(false);\n    }\n\n    function supportsInterface(bytes4 interfaceId) override external pure returns (bool) {\n        return interfaceId == type(ERC165).interfaceId || interfaceId == type(IDepositContract).interfaceId;\n    }\n\n    function to_little_endian_64(uint64 value) internal pure returns (bytes memory ret) {\n        ret = new bytes(8);\n        bytes8 bytesValue = bytes8(value);\n        // Byteswapping during copying to bytes.\n        ret[0] = bytesValue[7];\n        ret[1] = bytesValue[6];\n        ret[2] = bytesValue[5];\n        ret[3] = bytesValue[4];\n        ret[4] = bytesValue[3];\n        ret[5] = bytesValue[2];\n        ret[6] = bytesValue[1];\n        ret[7] = bytesValue[0];\n    }\n}",
  "sourcePath": "/home/brent/code/eth2-batch-deposit/contracts/DepositContract.sol",
  "compiler": {
    "name": "solc",
    "version": "0.6.11+commit.5ef660b1.Emscripten.clang"
  },
  "schemaVersion": "3.4.7",
  "updatedAt": "2022-06-28T15:21:53.770Z",
  "devdoc": {
    "kind": "dev",
    "methods": {
      "deposit(bytes,bytes,bytes,bytes32)": {
        "params": {
          "deposit_data_root": "The SHA-256 hash of the SSZ-encoded DepositData object. Used as a protection against malformed input.",
          "pubkey": "A BLS12-381 public key.",
          "signature": "A BLS12-381 signature.",
          "withdrawal_credentials": "Commitment to a public key for withdrawals."
        }
      },
      "get_deposit_count()": {
        "returns": {
          "_0": "The deposit count encoded as a little endian 64-bit number."
        }
      },
      "get_deposit_root()": {
        "returns": {
          "_0": "The deposit root hash."
        }
      },
      "supportsInterface(bytes4)": {
        "details": "Interface identification is specified in ERC-165. This function  uses less than 30,000 gas.",
        "params": {
          "interfaceId": "The interface identifier, as specified in ERC-165"
        },
        "returns": {
          "_0": "`true` if the contract implements `interfaceId` and  `interfaceId` is not 0xffffffff, `false` otherwise"
        }
      }
    },
    "version": 1
  },
  "userdoc": {
    "events": {
      "DepositEvent(bytes,bytes,bytes,bytes,bytes)": {
        "notice": "A processed deposit event."
      }
    },
    "kind": "user",
    "methods": {
      "deposit(bytes,bytes,bytes,bytes32)": {
        "notice": "Submit a Phase 0 DepositData object."
      },
      "get_deposit_count()": {
        "notice": "Query the current deposit count."
      },
      "get_deposit_root()": {
        "notice": "Query the current deposit root hash."
      },
      "supportsInterface(bytes4)": {
        "notice": "Query if a contract implements an interface"
      }
    },
    "notice": "This is the Ethereum 2.0 deposit contract interface. For more information see the Phase 0 specification under https://github.com/ethereum/eth2.0-specs",
    "version": 1
  }
}